:100000000C9462000C948A000C948A000C948A0070
:100010000C948A000C948A000C948A000C948A0038
:100020000C948A000C948A000C948A000C948A0028
:100030000C948A000C948A000C948A000C948A0018
:100040000C9452030C948A000C948A000C948A003D
:100050000C948A000C948A000C948A000C948A00F8
:100060000C948A000C948A000000000024002700F1
:100070002A0000000000250028002B0000000000DE
:1000800023002600290004040404040404040202DA
:100090000202020203030303030301020408102007
:1000A0004080010204081020010204081020000012
:1000B0000008000201000003040700000000000027
:1000C0000000180511241FBECFEFD8E0DEBFCDBF62
:1000D00011E0A0E0B1E0EEECFCE002C005900D9272
:1000E000A035B107D9F721E0A0E5B1E001C01D922C
:1000F000A937B207E1F710E0C2E6D0E004C02197CB
:10010000FE010E945F06C136D107C9F70E949C0319
:100110000C9465060C940000AF92BF92CF92DF92D0
:10012000EF92FF920F931F93CF93DF936C017B01AC
:100130008B01040F151FEB015E01AE18BF08C0173D
:10014000D10759F06991D601ED91FC910190F081B0
:10015000E02DC6010995892B79F7C501DF91CF9173
:100160001F910F91FF90EF90DF90CF90BF90AF90D5
:100170000895833081F028F4813099F08230A9F01D
:1001800008958730A9F08830C9F08430B1F48091A7
:1001900080008F7D03C0809180008F7780938000E6
:1001A000089584B58F7784BD089584B58F7DFBCF86
:1001B0008091B0008F778093B00008958091B00057
:1001C0008F7DF9CFCF93DF93282F30E0F901E255EF
:1001D000FF4F8491F901E656FF4FD491F901EA5798
:1001E000FF4FC491CC23A1F081110E94B900EC2FE4
:1001F000F0E0EE0FFF1FE458FF4FA591B491EC9192
:10020000ED2381E090E009F480E0DF91CF91089543
:1002100080E090E0FACF1F93CF93DF93282F30E058
:10022000F901E255FF4F8491F901E656FF4FD49151
:10023000F901EA57FF4FC491CC23A9F0162F811181
:100240000E94B900EC2FF0E0EE0FFF1FEE58FF4FB9
:10025000A591B4918FB7F894EC91111108C0D09585
:10026000DE23DC938FBFDF91CF911F910895DE2BAA
:10027000F8CFCF93DF9390E0FC01E656FF4F249137
:100280008A579F4FFC0184918823D1F090E0880F1A
:10029000991FFC01E859FF4FA591B491FC01EE585C
:1002A000FF4FC591D49161110EC09FB7F8948C9106
:1002B000E22FE0958E238C932881E223E8839FBF71
:1002C000DF91CF9108958FB7F894EC91E22BEC93E6
:1002D0008FBFF6CF3FB7F8948091550190915601AA
:1002E000A0915701B091580126B5A89B05C02F3F9A
:1002F00019F00196A11DB11D3FBFBA2FA92F982F4C
:100300008827BC01CD01620F711D811D911D42E046
:10031000660F771F881F991F4A95D1F708958F920E
:100320009F92AF92BF92CF92DF92EF92FF920E9484
:100330006A014B015C0188E8C82E83E1D82EE12CCC
:10034000F12C0E946A01681979098A099B09683EA3
:10035000734081059105A8F321E0C21AD108E10894
:10036000F10888EE880E83E0981EA11CB11CC11410
:10037000D104E104F10429F7FF90EF90DF90CF90D2
:10038000BF90AF909F908F900895089590E080E087
:100390000895FC0101900020E9F73197AF01481B57
:1003A000590BBC0181E691E00C948C00CF93DF9354
:1003B000EC0160E08E810E940B0161E08E810E9461
:1003C0000B0160E08E810E940B018BE891E00197A8
:1003D000F1F7DF91CF910895CF92DF92EF92FF92E4
:1003E0000F931F93CF93DF936C017C0187E0E80E9E
:1003F000F11CD0E0C0E0062F10E0B8010C2E02C0C6
:10040000759567950A94E2F76170F70181917F0114
:100410000E940B012196C430D10579F7C601DF9106
:10042000CF911F910F91FF90EF90DF90CF900C94A0
:10043000D601CF92DF92EF92FF920F931F93CF934B
:10044000DF93EC01F62E642F8C810E940B018D81CD
:100450008F3F19F060E00E940B010F2D10E08F8597
:1004600084FF25C06E0187E0C80ED11CF12CE12C61
:10047000B8010E2C02C0759567950A94E2F7617079
:10048000F60181916F010E940B01FFEFEF1AFF0A45
:1004900088E0E816F10461F7CE01DF91CF911F915A
:1004A0000F91FF90EF90DF90CF900C94D601B801A0
:1004B00084E0759567958A95E1F7CE010E94EC017D
:1004C0006F2DCE01DF91CF911F910F91FF90EF9093
:1004D000DF90CF900C94EC0140E0682F81E691E032
:1004E0000C94190281E00E946C028BE39FE101975A
:1004F000F1F70895CF93DF93823029F49091700142
:10050000986090937001809374011092750180E45B
:100510008093760180E18093770180E58093780174
:1005200061E0809165010E943901809166018F3FF1
:1005300019F061E00E94390161E0809167010E9439
:100540003901C1E6D1E09E01215631408091700110
:1005500084FD0BC084E090E021962817390744F40D
:1005600061E08E810E943901EECF88E090E0F4CF07
:100570008BE39DE00197F1F760E0809165010E94B7
:100580000B0160E0809167010E940B018091660180
:100590008F3F19F060E00E940B018091700184FD93
:1005A00034C063E081E691E00E94EC01CBE4D6E444
:1005B000CE010197F1F763E081E691E00E94EC0142
:1005C0002197F1F763E081E691E00E94EC0183E579
:1005D00092E00197F1F762E081E691E00E94EC0180
:1005E0008091700180620E946C0284E080937101AE
:1005F0008CE00E946C020E94720282E08093720181
:1006000086E0DF91CF910C946C0280620E946C02B4
:100610008BE496E40197F1F78091700180620E946B
:100620006C0283E592E00197F1F78091700180629E
:100630000E946C02D5CF90917401891710F08FEF52
:10064000890FE82FF0E0EF59FE4F848980680C9401
:100650006C020E94720280E00E941B038CE091E019
:100660000E94C90181E00E941B038BE191E00E947E
:10067000C90161E081E00E940B010E948F0160E0EE
:1006800081E00E940B010E94720280E00E941B0325
:100690008CE291E00C94C90141E00E94190281E0D2
:1006A00090E008951F920F920FB60F9211242F938E
:1006B0003F938F939F93AF93BF93809151019091FC
:1006C0005201A0915301B09154013091500123E0A7
:1006D000230F2D3758F50196A11DB11D2093500110
:1006E0008093510190935201A0935301B093540110
:1006F0008091550190915601A0915701B0915801F8
:100700000196A11DB11D8093550190935601A093B0
:100710005701B0935801BF91AF919F918F913F9135
:100720002F910F900FBE0F901F90189526E8230F62
:100730000296A11DB11DD2CF789484B5826084BD8C
:1007400084B5816084BD85B5826085BD85B58160D5
:1007500085BD80916E00816080936E001092810053
:10076000809181008260809381008091810081600E
:1007700080938100809180008160809380008091CF
:10078000B10084608093B1008091B000816080935B
:10079000B00080917A00846080937A0080917A0022
:1007A000826080937A0080917A00816080937A00E1
:1007B00080917A00806880937A001092C10082E074
:1007C0000E947A0260E083E00E94390160E082E0EA
:1007D0000E94390160E084E00E94390160E086E017
:1007E0000E94390160E087E00E94390160E085E005
:1007F0000E94390161E081E00E94390161E080E0FE
:100800000E94390180E00E941B038CE291E00E946B
:10081000C90180E4F82EC0E0D0E001E010E0F092E1
:100820007C0080917A00806480937A0080917A00C5
:1008300086FDFCCF8091780060917900762F682F3B
:10084000072E000C880B990B0E943D0520E030E03C
:1008500040EA50E40E94A10520E030E040E85AE37D
:100860000E94A1054B015C0120E030E040E850E42B
:100870000E949C0518160CF088C01093600100932C
:100880005F0120E030E0A901C501B4010E943605F6
:10089000811127C00E94720280E00E941B038CE03D
:1008A00091E00E94C90181E00E941B038EE391E068
:1008B0000E94C90161E080E00E940B010E948F014B
:1008C0000E94720260E080E00E940B0180E00E94C2
:1008D0001B038CE291E00E94C9011092600110920A
:1008E0005F0186E00E94E200019709F060C085E0A8
:1008F0000E94E200019709F05AC083E00E94E200E2
:10090000019709F054C080915D0190915E01892B9F
:1009100009F04DC00E94290380915D0190915E0114
:10092000019690935E0180935D0183E00E94E20056
:10093000892B29F582E00E94E200892B01F584E0F1
:100940000E94E200892BD9F486E00E94E200892B04
:10095000B1F487E00E94E200892B89F485E00E94CF
:10096000E200892B61F410925E0110925D011092F9
:100970005C0110925B0110925A011092590120976C
:1009800009F44DCF0E9400004ACF20E030E0A901D9
:10099000C501B4010E9436058111A3CF80915F018A
:1009A00090916001181619060CF09BCF73CF82E06E
:1009B0000E94E200019729F183E00E94E200019782
:1009C00009F0B3CF87E00E94E200019709F0ADCFB4
:1009D00084E00E94E200019709F0A7CF80915901BD
:1009E00090915A01892B09F0A0CF0E942903809190
:1009F000590190915A01019690935A01809359019F
:100A000094CF86E00E94E2000197B1F680915B01ED
:100A100090915C01892B81F60E94290380915B01F2
:100A200090915C01019690935C0180935B017DCF76
:100A3000E1E6F1E01382128284E091E09183808309
:100A40008DE084838FEF85838CE086838BE08783C2
:100A50008AE0808789E0818788E082871386148610
:100A600015861686178681E00C947A020E94780516
:100A700008F481E00895E89409C097FB3EF490954E
:100A80008095709561957F4F8F4F9F4F9923A9F067
:100A9000F92F96E9BB279395F695879577956795F6
:100AA000B795F111F8CFFAF4BB0F11F460FF1BC03A
:100AB0006F5F7F4F8F4F9F4F16C0882311F096E9CD
:100AC00011C0772321F09EE8872F762F05C066237B
:100AD00071F096E8862F70E060E02AF09A95660F34
:100AE000771F881FDAF7880F9695879597F90895ED
:100AF000990F0008550FAA0BE0E8FEEF161617062F
:100B0000E807F907C0F012161306E407F50798F096
:100B1000621B730B840B950B39F40A2661F0232BAF
:100B2000242B252B21F408950A2609F4A140A6952B
:100B30008FEF811D811D08950E94780508F48FEFC5
:100B400008950E94B4050C9425060E94170638F0FB
:100B50000E941E0620F0952311F00C940E060C94B2
:100B6000140611240C9459060E94360670F3959FC2
:100B7000C1F3950F50E0551F629FF001729FBB2794
:100B8000F00DB11D639FAA27F00DB11DAA1F649F30
:100B90006627B00DA11D661F829F2227B00DA11DE3
:100BA000621F739FB00DA11D621F839FA00D611D69
:100BB000221F749F3327A00D611D231F849F600D8A
:100BC000211D822F762F6A2F11249F5750409AF0B3
:100BD000F1F088234AF0EE0FFF1FBB1F661F771F3F
:100BE000881F91505040A9F79E3F510580F00C940A
:100BF0000E060C9459065F3FE4F3983ED4F38695B5
:100C000077956795B795F795E7959F5FC1F7FE2BA9
:100C1000880F911D9695879597F9089597F99F6785
:100C200080E870E060E008959FEF80EC0895002474
:100C30000A941616170618060906089500240A9441
:100C400012161306140605060895092E0394000CC7
:100C500011F4882352F0BB0F40F4BF2B11F460FF56
:100C600004C06F5F7F4F8F4F9F4F089557FD90587F
:100C7000440F551F59F05F3F71F04795880F97FB60
:100C8000991F61F09F3F79F087950895121613061A
:100C90001406551FF2CF4695F1DF08C01616170649
:100CA0001806991FF1CF869571056105089408957E
:100CB000E894BB2766277727CB0197F90895EE0FB5
:0E0CC000FF1F0590F491E02D0994F894FFCFEA
:100CCE00000000004C038C00C601C5015249454787
:100CDE004F20414354495641444F0053494E2046FC
:100CEE00455254494C495A414E5445005249454784
:100CFE004F20444553414354495641444F00434FBE
:100D0E004E2046455254494C495A414E54450000D6
:00000001FF
